:020000040800F2
:1000000028080020890200085F200008D51E00088B
:100010005D200008A91D000825230008000000003D
:100020000000000000000000000000002D22000879
:10003000AB1D000800000000612000082F2200080E
:10004000A3020008A3020008A3020008A3020008FC
:10005000A3020008A3020008A3020008A3020008EC
:10006000A3020008A3020008A3020008A3020008DC
:10007000A3020008A3020008A3020008A3020008CC
:10008000A3020008A3020008A3020008A3020008BC
:10009000A3020008A3020008A3020008A3020008AC
:1000A000A3020008A3020008A3020008A30200089C
:1000B000A3020008A3020008A3020008A30200088C
:1000C000A3020008A3020008A3020008A30200087C
:1000D000A3020008A3020008A3020008A30200086C
:1000E000A3020008A3020008A3020008A30200085C
:1000F000A3020008A3020008A3020008A30200084C
:10010000A3020008A3020008A3020008A30200083B
:10011000A3020008A3020008A3020008A30200082B
:10012000A3020008A3020008A3020008A30200081B
:1001300000F002F800F098F80AA090E8000C824461
:100140008344AAF10107DA4501D100F08DF8AFF23E
:10015000090EBAE80F0013F0010F18BFFB1A43F0A5
:1001600001031847E02D0000002E0000103A24BFC4
:1001700078C878C1FAD8520724BF30C830C144BF0C
:1001800004680C607047000000230024002500264E
:10019000103A28BF78C1FBD8520728BF30C148BFEA
:1001A0000B6070476E2900F0B482702900F027843C
:1001B000662902F0C185652902F0BE85672902F033
:1001C000BB85612902F0BA8503681B0A28BF41F08C
:1001D0008001692900F0C880642900F0C580752974
:1001E00000F0C2806F2900F0B583782900F0F38316
:1001F000E92900F04F83E42900F04C83F52900F051
:100200004983EF2900F0B283F82900F0F2830368F4
:10021000DB0928BF41F08001632900F0BE82732909
:1002200000F0C382E32900F0D187F32900F0D687DC
:10023000002070471FB59DE8030001F0A7FB01F007
:10024000C3F804000020002102F060FD401C606043
:100250000020002102F044FDE06000F0C7FF1FBD58
:1002600010B501F02CF810BD01F080F81146FFF731
:10027000E1FF02F0E7F801F031FB03B4FFF7F0FF14
:1002800003BC01F0F5FC000009488047094800471D
:10029000FEE7FEE7FEE7FEE7FEE7FEE7FEE7FEE736
:1002A000FEE7FEE704480549054A064B7047000093
:1002B000352200083101000828020020280800200B
:1002C00028040020280400207CB51D4616460C009A
:1002D000009001D02044401E074B7B442A466946CB
:1002E0000190304600F02FFA05461CB10020694607
:1002F00000F03CFA28467CBD990400000FB4044984
:1003000010B503AA029800F055FA10BC5DF814FB72
:10031000A400002070B50C460546012A05D02878B7
:10032000800600D5EA69002302E0012305E05B1C9A
:10033000934202D2E05C0028F9D1A869E618C01AFD
:10034000A861286A18442862284600F050F904E0A1
:10035000D5E9012114F8010B9047B442F8D328469F
:1003600000F05BF970BD00002DE9F0410646002465
:1003700010687529314616A510D000F05FF90028E5
:1003800002DA404213A507E031688A0701D512A5B9
:1003900002E0490704D511A5012401E000F057F956
:1003A00000210A2206F1240709E0B0FBF2FCB0FBB1
:1003B000F2F302FB1C00303078541846491C002828
:1003C000F3D123462A463046BDE8F04100F048B953
:1003D000000000002D0000002B00000020000000A5
:1003E0002DE9F05F894604464FF0000ADFF874B14A
:1003F000FB44C0F820A02046E1688847002874D05C
:10040000252806D0D4E901219047206A401C2062AB
:10041000F1E700265F462046E16888472028054628
:1004200007DB312D05D2781910F8200C08B10643EE
:10043000F1E7B00701D526F00406C4F81CA0002798
:10044000C4F818A02A2D09D0284602F035FC38B38C
:1004500004EB8708303DC8F8185019E059F8041B20
:10046000204604EB87029161E1688847012F054629
:1004700018D1E069002820DA26F020061DE0D8F81F
:10048000180000EB800005EB40003038C8F8180079
:100490002046E1688847054602F00EFC0028EED1B0
:1004A000012F0AD02E2D08D12046E16888477F1CF5
:1004B0000546022F46F02006C4DBA069002803DAB7
:1004C000404246F00106A061F00701D026F0100678
:1004D0006C2D0BD0682D09D04C2D39D06A2D35D01C
:1004E000742D35D07A2D33D016E038E0E1682F46F0
:1004F00020468847B842054609D16C2F26D04FF4D4
:100500008060E168064320468847054604E06C2F7A
:100510001AD04FF4807006430DB3A5F1410019289D
:1005200002D8203546F400664A4629462046266011
:100530004E46FFF737FE80B101280BD0F61D26F09E
:10054000070000F1080956E74020E4E78020D8E7DB
:100550000020D6E706F104094DE7284652E7206A55
:10056000BDE8F09F4C2900004FF0013C50F8042BEF
:1005700051F8043B9A4221D1A2EB0C03934313EAB6
:10058000CC1317D150F8042B51F8043B9A4215D1E3
:10059000A2EB0C03934313EACC130BD150F8042BBA
:1005A00051F8043B9A4209D1A2EB0C03934313EA9E
:1005B000CC13DBD04FF00000704700BFD01A01BA57
:1005C000B1FA81F101F0180122FA01F0CB40DBB25F
:1005D000C0B2C01AC1F120012CFA01F3D11A914323
:1005E00011EAC311E6D1704770477047704770B584
:1005F000044685690068C10601D5302600E0202642
:10060000C00707D070BDD4E9012130469047206A69
:10061000401C20626D1EF6D570BD70B5044685691C
:100620000078C00707D170BDD4E901212020904790
:10063000206A401C20626D1EF6D570BD09684A050F
:1006400001D540B27047C905FCD500B270470968B2
:100650004A0501D5C0B27047C905FCD580B27047C4
:100660002DE9F0470D4699469246044600F12408CC
:100670000168880604D5E06921F01001216000E0DE
:100680000120A84201DD471B00E00027A1697A197B
:1006900002EB0900081AA0612078C00602D42046A7
:1006A000FFF7A5FF002608E0D4E901211AF80600AB
:1006B0009047206A401C761C20624E45F4DB20786F
:1006C000C0060AD52046FFF792FF06E0D4E90121D3
:1006D00030209047206A401C2062381EA7F1010795
:1006E000F4DC07E0D4E9012118F805009047206AFE
:1006F000401C2062281EA5F10105F3DC2046FFF70F
:100700008CFF2078000602D50220BDE8F08701208A
:10071000FBE711680268006A530501D508700AE01A
:10072000D30501D5088006E0130603D5C217C1E939
:10073000000200E0086001207047000001694A1CC7
:1007400002610878704700B58FB0CDE90131002112
:10075000059105497944CDE9031011466846FFF734
:100760003FFE0FB000BD0000E5FFFFFF0A6802F882
:10077000010B0A607047D1E900239A4202D2531C50
:100780000B601070704710B5436913B1AFF3008070
:1007900001E0FFF7BFFD012010BD127800F1240138
:1007A0000A7000224A700122EDE711684FF0FF3213
:1007B000E9E70000074B70B50D467B44FFF7C3FF28
:1007C0000446284600F00EFD10B14FF0FF3070BD1A
:1007D000204670BD092500002DE9FF5F15468A46B9
:1007E0000446DFF8AC80F8440027D8E900103E4604
:1007F000CDE9001010E03AF816106A4602A800F0A1
:1008000091FD411C07D02178890603D5E26939188A
:1008100091420DD80744761C2078800602D5E06905
:10082000B84205DDAE42E6DB3AF816000028E2D118
:10083000A069C01BA0612046FFF7D9FED8E90010CF
:10084000CDE90010002017E03AF818106A4602A817
:1008500000F068FDB0F1FF3F81460BD000250DF19F
:10086000080B05E0D4E901211BF8050090476D1C39
:100870004D45F7D308F10100B0428046E4DB206A21
:10088000384420622046FFF7C8FEBDE8FF9F000005
:100890006A2500002DE9F0418046D21D22F00702B2
:1008A0000025D2E90002F52915A614D0011E72F127
:1008B000000106DA0023D0EB030063EB020211A66D
:1008C00008E0D8F800108B0701D50FA602E0490711
:1008D00001D50EA601251146002408F1240704E0E5
:1008E00000F098F830323A55641C50EA0102F7D112
:1008F0002B46324621464046BDE8F041FFF7B0BEE8
:10090000000000002D0000002B000000200000006F
:1009100030B4002100F1240408E002F00705D208F9
:10092000303542EA4372DB086554491C52EA03053C
:10093000F3D10468002310A2250708D504F0200491
:100940000C4304D0C46901230CA2641EC46130BCF2
:10095000FFF786BE10B5044621461068FFF777FE04
:1009600002462046BDE810400023D1E7D21D22F008
:100970000701D1E90023CBE70000000030000000B0
:10098000F0B40D460188090502D5214C7C4402E0F3
:100990001F4C7C440E34002100F1240608E002F0D4
:1009A0000F071209E75D42EA03721B097754491CDD
:1009B00052EA0307F3D102780023120704D5702D01
:1009C00006D009B1022311342246F0BCFFF748BE1D
:1009D00001231034F8E770B504460D46214610682F
:1009E000FFF735FE024629462046BDE87040002349
:1009F000C6E7D21D22F00703D3E90023C0E703684E
:100A0000126843F0200303600823C3610023B7E7A3
:100A1000CC23000030B5B0F10A0271F100034FEAB7
:100A2000900E4EEA817EB0EB0E0061EB91014FEA31
:100A3000101E4EEA017E10EB0E0041EB11114FEA41
:100A4000102E4EEA016E10EB0E0041EB11214FEA21
:100A5000104E4EEA014E10EB0E0041EB11414018D2
:100A600041F100014FEAD00040EA41704FEAD10164
:100A70004FEA810444EA907410EB800544EB0104D2
:100A80006D1944EB0404521BA3414FF0000348BF0F
:100A90000A3200D530BD401C41F1000130BD2DE9C6
:100AA000FF4F0C461E464FF0FF378BB0D2E90001D6
:100AB000DDF860800A908A46C1F30A5505B93D46C3
:100AC000002108464FF00000BAF1000F00F440008A
:100AD00005DA00EB80004FF4400101EA50004FEAD4
:100AE0009059B9F1010F00DDB9460A9850EA4A0061
:100AF0000ED044F61050A5F2FF3545432F14B8F13F
:100B0000000F1ED07542291E1EDDC9F100021CE037
:100B1000B8F1010F4FF0000001D0302103E0F243A3
:100B200005E02154401CB042FBDB3046002200218E
:100B300021540B99C1F80880C1E900200FB0BDE82D
:100B4000F08FBD1B6D1CDEE74A4600DA694206A83D
:100B500000F0A6FC06AB93E8070003AB83E80700B0
:100B600050460A9901F0CCFC8DE80700A0F5005032
:100B70001F3800900398002D0ADD42F21F014A46FB
:100B80000844002303A90390684601F035FF09E0FB
:100B9000A0F500504A461F38002303A90390684679
:100BA00001F03FFF8DE807000004000C03D04FF078
:100BB000FF30410800E01046B8F1000F03D00022DA
:100BC000009215461EE0751E05D4FFF723FF303254
:100BD00062556D1EF9D5B3460122084302D00022AA
:100BE0007F1C04E02078302801D100227F1E002ADB
:100BF000099784D01DE0112D07DAFFF70BFF303283
:100C000062556D1C50EA0102F5D1084302D00098EC
:100C1000C8B10EE00021681E05E0235C625C6354ED
:100C20002254401E491C8142F7DBAB46A81B401EE4
:100C30000990002004F80B000B98099AC0F808806E
:100C4000C0E9002B7AE711264FF0000857E72DE99D
:100C5000F04F88460446D21D22F0070191B0D1E939
:100C60000001CDE90A0102F013F802460B98C00F0B
:100C700001D02D2007E02068810701D52B2002E05C
:100C8000202101EAC000032A099001D0072A05DBD0
:100C900003464146204600F0C3FB0BE12078800666
:100CA00001D5E06900E00620B8F1650F814606D065
:100CB000B8F1660F18D0B8F1670F70D131E000209D
:100CC000B9F1110F009001DB112301E009F10103DB
:100CD0000AAA01A90CA8FFF7E2FEDDE90C700026C4
:100CE00009F10105834647E001204B4600904FF093
:100CF00000470AAA01A90CA8FFF7D1FEDDE90DB053
:100D00000C995D46002610B909F101000D18B9EBE8
:100D1000050003D4C0F1FF3609F10105A5EB090078
:100D20002BE0B9F1010F01DA4FF001090020B9F110
:100D3000110F0090484601DD112300E003460AAA86
:100D400001A90CA8FFF7ABFEDDE90C704D460026AB
:100D50008346207800070AD4AB4500DA5D4601A837
:100D6000012D04DD411911F8011C302907D04F4530
:100D700002DA17F1040F04DA012082460FE06D1E3B
:100D8000EEE7002F02DCED1B3E4403E0781CA84296
:100D900000DD7D1CB81B00F1010A4FF000472078F0
:100DA000000703D4AA4501DB4FF0FF3A0021B7F159
:100DB000004F0DF143088DF8431024D002202B235F
:100DC000002F01DA7F422D230A21021EA0F101002B
:100DD00000DC5FB197FBF1FC97FBF1F201FB1C7C9F
:100DE00017460CF1300C08F801CDEEE7A8F1010030
:100DF00003702188090501D5452100E06521A0F196
:100E0000010800F8011C09980FA9A1EB0807FF1DB4
:100E100000B10120411901EBEA70A1693844081AB8
:100E2000401EA0612078C00602D42046FFF7DFFBF9
:100E3000099828B1D4E901219047206A401C20621A
:100E40002078C00622D52046FFF7D1FB1EE0002EF9
:100E500004DBB34502DD01A8805D00E03020D4E969
:100E600001219047206A401C2062761CAAF10100F3
:100E70005FEA000A0AD100F0A7FAC0680168405C86
:100E8000D4E901219047206A401C2062281EA5F168
:100E90000105DCDC07E0D4E9012118F8010B9047DB
:100EA000206A401C2062381EA7F10107F3DC2046AF
:100EB000FFF7B3FB032011B041E600002DE9F04F2E
:100EC00004460D46D21D22F0070089B0D0E90097F4
:100ED0004846394601F0DCFE0246F80F01D02D23CA
:100EE00007E02068810701D52B2302E0202101EAD9
:100EF000C0038DF820300BB1012000E00020032A50
:100F0000824601D0072A04DB2946204600F088FAF1
:100F10003FE12078800601D40D2500E0E569C7F3A4
:100F20000A560D2D49DA00214FEA175B08464FF0AB
:100F30000000002F00F4400007DA00EB80004FF4BF
:100F4000400100EBD07001EA60008115012901DD4C
:100F50004FF0FF3100224FEA850CBCF1180F06D389
:100F60001346ACF118004FF08052C24003E04FF43A
:100F7000801323FA0CF30CF10C0CBCF1200F04D3FA
:100F8000ACF1200C09FA0CF001E007FA0CF0002992
:100F90004FF0004801DD18B90FE00ED140450CD3E9
:100FA00019EB02095F4121B9404502D19F4329EA6B
:100FB0000209BBEB175F00D0761C2088000502D524
:100FC0007B48784402E07A487844193808AA3023EC
:100FD00002F80A30037C0AF10101002E0AF1020A2C
:100FE00053546A4602DC4FF0300101E04FF031010A
:100FF0004FF001088DF8001002D0A6F2FF3603E092
:1010000059EA470100D06B4E002D02DC2178090718
:1010100004D54FF002082E218DF80110C44600219E
:101020000BE0C7F303433F01C35C491C6D1E02F88C
:101030000830052908F1010801DA002DF1DC002152
:101040000CE000EB1973491C1B786D1E082902F88F
:1010500008304FEA091908F1010801DA002DF0DC27
:1010600021688B0602D516E0A8F10108E04505DDF0
:1010700002EB080313F8013C302BF5D0B8F1000F58
:1010800009DD02EB080313F8013C2E2B03D10907FD
:1010900001D4A8F10108002D05DD3E2102F8081059
:1010A0006D1E08F10108407C002E02F8080008F1CE
:1010B000010804DA2D20764202F8080002E02B2015
:1010C00002F808000A214FF47A70864208F10108FC
:1010D0000BDB96FBF0F3303302F8083096FBF0F3AD
:1010E00008F1010800FB136601E0642E0CDB6420AC
:1010F00096FBF0F3303302F8083096FBF0F308F17A
:10110000010800FB136601E00A2E06DB96FBF1F0F6
:10111000303002F8080008F1010896FBF1F001FBFD
:101120001060303002F80800A16908F1010808EBEE
:10113000050202EB0A00081AA0612078C00602D45A
:101140002046FFF754FA216A08AE01EB0A0020623C
:1011500004E0D4E9012116F8010B9047BAF1010A25
:10116000F7D22078C00602D52046FFF740FA6E4637
:1011700009E016F8010B3E280FD0D4E90121904771
:10118000206A401C2062B8F10108F2D22046FFF725
:1011900044FA09B00320BDE8F08F206A2844206299
:1011A00003E0D4E90121302090476D1EEBD3F8E72E
:1011B000D11D000002FCFFFF10B5436913B1AFF36E
:1011C000008001E0FFF708FB012010BD128800F14C
:1011D000240182840022C2840122EDE711684FF0CD
:1011E000FF32E9E7007B00F08000704710B542480D
:1011F000542100F083FB4148542100F07FFB40481C
:10120000542100F07BFB3F493B483C4A3F4B086080
:101210003D490A603A491960531C0365481C106532
:10122000012008653B48344A39A1784400F0B8FAF7
:1012300020B9384878440A3800F059FB37482F4A1B
:1012400035A1784400F0ACFA20B9344878440A3823
:1012500000F04DFB32482A4A2FA1784400F0A0FA52
:1012600020B92F4878440A3800F041FB4023224837
:10127000DC000021224600F070FA20B125487844B5
:10128000543800F034FB1D4822464023002100F072
:1012900064FA20B121487844543800F028FB1848FB
:1012A00022461023002100F058FA002806D01C48DE
:1012B0007844BDE81040563800F019BB10BD104806
:1012C00070B5006D20F001040B4800F0E1FA0B4806
:1012D00000F0DEFA0A4800F0DBFA09E0206D20F0A9
:1012E0000105204600F0D4FA204600F071F82C46A3
:1012F000002CF3D170BD000050000020A40000209D
:10130000F800002000000020040000200800002059
:10131000720000001A1C000077000000091C000089
:10132000E21B00002DE9F04116460C46054600F090
:1013300043F8036893F80101012807D0FF2C12D865
:10134000185D80B101202C70BDE8F081D3F8070151
:101350003246214603F20713C7182846BC46BDE8AB
:10136000F041002360474FF0FF30EDE7754600F095
:10137000EDFAAE4605006946534620F00700854663
:1013800018B020B5FEF78EFFBDE820404FF00006F4
:101390004FF000074FF000084FF0000BAC46ACE8F0
:1013A000C009ACE8C009ACE8C009ACE8C00921F04C
:1013B00007018D467047000010B500F005F8001DCC
:1013C00010BD00BF49190000004870476C010020A3
:1013D00070B50446051F00F0BDFA0068002C14BF6C
:1013E000446870BD002C18BFAC423CBF2046646806
:1013F000F8D301680A18AA4218BF456003D12A68C9
:1014000005461144016028684119A1421CBF6C6067
:1014100070BD6168696021680844286070BD000083
:101420002DE9F0411F46044603260168072A01F40E
:10143000006004DB08B116A505E016A503E008B1BD
:1014400015A500E015A521F010002060A069C01EC0
:10145000A0610FB1401EA0612046FFF7C8F84FB150
:10146000D4E9012138469047206A401C2062C01C04
:10147000206206E0206AFAE7D4E9012115F8010BA1
:101480009047761EF8D22046FFF7C7F8BDE8F081F6
:101490004E414E006E616E00494E4600696E660018
:1014A0002DE9F047814616468AB0354878440DC884
:1014B0008DE80D0032487844801C03AC0DC884E8E8
:1014C0000D0041F69B300844372190FBF1F290FB70
:1014D000F1F5A5F1800501FB12041B3C02D5644225
:1014E000012000E00020DFF898A080460027FA44A1
:1014F000AAF1BE0A0EE0E0070AD03246684607EBC2
:10150000470101230AEB810101F08BFA8DE8070006
:1015100064107F1C002CEED1194F7F44AE3F19E0C0
:10152000E80715D007EB04100DF1180A90E80E003B
:101530008AE80E00C068F04201D19819089032463E
:10154000012306A903A801F06CFA03AB83E80700A6
:101550006D10641C002DE3D14FF001033246694643
:10156000B8F1000F03A802D001F046FA01E001F043
:1015700058FAC9E90001C9F808200AB0BDE8F087A7
:10158000781900002DE9F04705460C46C86820F49C
:10159000201040F48000C860800602D5084600F0A4
:1015A00026FBE06841F282014FF0FF390140022939
:1015B00003D0204600F0C4FAB5E000F42041B1F5B4
:1015C000004F0FD1C00306D56168E06A884200D899
:1015D0000846606006E02069E0626060606900F0D3
:1015E000ABFEA061A0680022EEB200280DDAE1682F
:1015F0008B050AD4C043A06041F490302260E060C3
:101600006068411C61600670A5E0E0689046226059
:1016100040F40050E060206968BB606900F08EFE15
:10162000012704F12405A0B1A08910F4407F08D05F
:10163000E06900F0DAF9206118B1E06840F4006078
:1016400016E0E7612561E06820F4407040F48060B6
:101650000EE0E06900F0C9F900282061F1D0E068EF
:1016600040F4006010F4407FE06002D140F48070EC
:10167000E06020696060E06825696FF0010AC105DB
:101680001FD56168E06A884200D80846411B04D033
:101690002246284600F05EFAF0BBE068010203D55E
:1016A000E562C4E9015854E0691CE1626160E169E6
:1016B00040F48030491EC4E9021030462E70BDE867
:1016C000F087010202D500F480320AE06068411C14
:1016D00061600670E0680A2E40F48030E06006D059
:1016E0000022E16A6068814203D90B4602E00122D0
:1016F000F7E70346A7895B1B7F0503D4E7699F4291
:1017000000DDE2B1814200D80146E5620F1AC4E96A
:101710000158002B09DD00E005E022461946284665
:1017200000F018FA08B14846C9E747B1A069E56278
:101730006560C01BA061E06840F01000E060E068F8
:10174000000208D56168A069E562491B084465602C
:10175000A0615046B3E73046B1E770B5C468A5074D
:1017600013D0650211D4B2F5807F09D0B2F5007FA5
:1017700006D0B2F5806F08D1012300F1240106E004
:101780005D1E6FF07F46B54201D3012070BD01613F
:10179000C361416024F470611143C160002070BDD9
:1017A0002DE9F0410C461646070047D0104600F0E0
:1017B0006FF82078611C61280AD0722802D077283F
:1017C0003CD102E00125002405E00225042402E0CA
:1017D000082448F2020511F8010B2B2806D06228D4
:1017E00009D011F8010C74280AD00BE045F003056C
:1017F00044F00204EFE745F0040544F00104EAE791
:1018000044F010043846214600F0A0FD411C15D0DC
:101810000021316171604FF40071F560F161706118
:10182000200704D530460222002100F00DF9306D6A
:1018300040F0010030653046BDE8F0810020FBE754
:101840002DE9F0410D460646104C206DC10704D02D
:10185000410804D020F00104F7E722460EE05420AE
:1018600000F0C3F807000ED0206D47F001010843D7
:1018700054212065384600F041F83A462946304662
:10188000BDE8F0418CE70020D6E7000050000020C2
:101890002DE9F04704464FF000094FF0FF37C568C7
:1018A000D4E90486A80707D0204600F07DF9304629
:1018B00000F039FD002802DA3846BDE8F087280537
:1018C00002D54046FFF784FD4C21204600F016F873
:1018D000206D20F0010020654846EEE710B5044673
:1018E000AFF300802046BDE81040FEF7C6BC10B53F
:1018F00000F0A4F9BDE8104000F09AB94FF00002E2
:1019000000B5134694469646203922BFA0E80C50F5
:10191000A0E80C50B1F12001BFF4F7AF090728BFD0
:10192000A0E80C5048BF0CC05DF804EB890028BF4C
:1019300040F8042B08BF704748BF20F8022B11F075
:10194000804F18BF00F8012B704700000048704717
:101950004C01002000487047540100207047704738
:101960007047704738B504460A4600206946AFF311
:101970000080002808BF38BD02460099204600F0CC
:1019800084F9012038BD012000F0D3B9F8B5AFF3D8
:101990000080054600200C46102000BF0646A8190E
:1019A000A0420DD9324669460020AFF300800700FF
:1019B00008BF00F0BEF90098A04218BF0546C41940
:1019C000FFF7C8FF05600746F01D20F00700461925
:1019D000284600F053F9B44208BFF8BDA21B3146B7
:1019E0003868BDE8F84000F050B970B50646FFF71A
:1019F000B1FF056806F10B0020F00704B4429CBF5C
:101A0000002070BD2B466A68BAB11068A04210D39E
:101A100004F1080188423CBF5068586007D3516800
:101A2000101941601168091B016058601460101D95
:101A300070BD13465268002AE7D121462846FFF7B9
:101A400091FF0028DED170BD2DE9F0410446164615
:101A50000D464769007B80072ED0384600F06EFCAB
:101A600050BB3EB3012E02D0022E25D104E0204609
:101A700000F025F905441DE0384600F05DFCE16802
:101A8000002841F01001E16005DA204600F058F826
:101A90000120BDE8F081C9030BD56268E16A91427B
:101AA00000D81146A26911442269891A814200DDD9
:101AB00008460544002D01DA0220EAE7E16A606881
:101AC000E268814206D29103E06203D522F400313C
:101AD00041F01002A6690027AE4213DCE16A8142A0
:101AE00001D90B4600E0034603EB060C2369ACEB7F
:101AF000030CAC4506DD814201D98C4600E08446EA
:101B00009C4505D1A760276042F02000A5620DE04A
:101B1000AD1BE669AE1B8142A66000D90846C01A1B
:101B2000281A20605819606022F0200003490840FC
:101B3000E060002084F84870ABE70000BFCFD7FF1B
:101B4000C16821F4001141F08001C1600021816071
:101B5000016070472DE9F047814614460E464FF06C
:101B6000FF383248D5685769054209D03846A1691F
:101B700000F018FC002811DB2C48C0430540E5604C
:101B80002B4632464946384600F00FFCA16920F04A
:101B90000042B21A11440028A16103D02046FFF789
:101BA000CFFF4046BDE8F08770B504460569C06ABE
:101BB0006168884200D80846E16821F42011E1609C
:101BC000C90312D5A84208D02246411B2846FFF778
:101BD000C1FF10B14FF0FF3070BD0020E562C4E9D5
:101BE0000150E06820F48030E060002070BD10B546
:101BF0000446C06820F02000E060A16AA069884225
:101C00000DD02046FFF7D0FFE06820F4405040F0B0
:101C10001000E060A06AA0612069E062606044F2A8
:101C20004001E0688843E06010BD00001000020041
:101C3000002801D000F01CB87047000010B5014624
:101C400002A000F05DF8012010BD0000534947528A
:101C5000545245443A2052656469726563743A206F
:101C600063616E2774206F70656E3A20000000007B
:101C700001491820ABBEFEE72600020000210160EA
:101C8000C0E90110704710207047034640688C4639
:101C9000002818BF88423CBF03464068F8D3186844
:101CA0001844884207D00CF1030020F00700001D03
:101CB000411A521A0146081D0A60FFF789BB10B588
:101CC0000146C268900703D0900607D5886A0AE0EB
:101CD00000F03EF801210160881E10BD8B69486844
:101CE00018440B69C01A91F848301BB191F849109B
:101CF000401A10BD1103FCD50028FADD401E10BDAE
:101D000070B505460C460A2000E06D1C00F018F87E
:101D100035B128780028F8D102E0641C00F010F8F2
:101D200014B120780028F8D1BDE870400A2000F0F6
:101D300007B810B500F010F8BDE81040FFF778BF05
:101D400008B569468DF800000320ABBE08BD70479A
:101D5000004870474C01002010B5012805D0002133
:101D600003A0FFF7CDFF012010BD09A1F8E7000097
:101D700053494752544D454D3A204F7574206F6674
:101D80002068656170206D656D6F727900000000DC
:101D90003A2048656170206D656D6F727920636FC0
:101DA0007272757074656400FEE770472DE9F04744
:101DB00080464548894640444FEAB020072803D36F
:101DC0004248B12100F010FB99F80300810841EA74
:101DD0008010C0B2122871D8012101FA00F03C49EC
:101DE00008426BD0B9F8000018B93848B32100F0A8
:101DF000FBFA99F8030000F00F0AC0060CD599F819
:101E00000200411E032905D33048BA2100F0ECFA44
:101E100099F802004AEA000AB9F80000010622D047
:101E2000D8F80010002201234FF00F0C0027082FD4
:101E300017D003FA07F4044210D00CFA02F60AFA9B
:101E400002F5B143294399F80350482D04D0282DB9
:101E500008BFC8F8144001E0C8F810400432013748
:101E6000E5E7C8F80010B0F5807F25D3D8F8041056
:101E700000224FF480734FF00F0C0027082F19D069
:101E800003FA07F404EA0005A54210D10CFA02F6A1
:101E90000AFA02F5B143294399F80350482D04D0BA
:101EA000282D08BFC8F8144001E0C8F810400432DB
:101EB0000137E3E7C8F80410BDE8F0870348B22112
:101EC00000F092FA8EE700BF00F8FEBF6F2E000808
:101ED000F3040400FEE700000949D1F88020D2078E
:101EE0001CBF09685FEAC17100D170474FF06041C3
:101EF0000A68002AFCD04FF060410870704700BFAC
:101F0000000E00E0134800F027B800BF114800F0B1
:101F10002EB800BF0F4800F047B800BF0D488188B9
:101F20000068C2685140C160704700BF0948203056
:101F300000F012B80748203000F019B805482030EA
:101F400000F032B80348818C006AC2685140C16019
:101F5000704700BF0C000020017B1422002908BF3D
:101F60001022016883888B500021817370471CB553
:101F700004468068012100F075F841F2030001A9D0
:101F8000ADF80600A088ADF804002068FFF70EFF4A
:101F9000607B18B1204600F007F802E02046FFF70A
:101FA000DBFF607BA0731CBD017B1022002908BFF2
:101FB0001422016883888B500121817370470000CF
:101FC0002DE9FC4705AF1D4690468946064607F1B8
:101FD0001403002000212A4647F8143CFEF774F948
:101FE00000F10801EA4621F00701ADEB0104411CB4
:101FF000A54657F8143C20462A46FEF765F9032EFD
:102000008FBF09A170B20AA151F8201082B00CA0B4
:102010004A4643460094FEF771F902B0D546A7F14F
:102020000C04A546BDE8F087554E4B4E4F570000B7
:10203000572E0008632E00085D2E0008692E000848
:102040005B25735D205B46756E3A2573204C696E87
:10205000653A25645D2025730D0A0000FEE7704790
:102060007047000070B50D46044610B10B48204083
:1020700004D00B4840F24A4100F0B6F9094E4DB188
:10208000012D04D0064840F24B4100F0ADF9306814
:10209000204301E03068A043306070BD0200C0FF03
:1020A000DA2E00081810024070B55F4D4FF0FF3374
:1020B0002C1D013354F80C6B092B01D8002EF8D1DC
:1020C000DBB20A2B02D10220287008E0002524F898
:1020D000062C24F8081C44F80C0C04F8045C184680
:1020E00070BD00BF2DE9F0414F4D00244FF00108B5
:1020F0000027782F12D0EE19307B68B170688047C6
:10210000307B01383073708930B9706808B985F850
:1021100000803473C6E901440C37EAE7BDE8F041BA
:1021200000F04AB8E0B5009003A106A300201A22EF
:10213000FFF746FF8CBD00BF5343485F4572726F87
:1021400072000000E99499E8AFAFE7A081EFBC9A74
:102150002564000010B534480421012200237C29A5
:1021600008D0445804B90270441843500C3123720B
:102170006360F4E700214FF4FA5201700C480068E4
:10218000B0FBF2F00138B0F1807F00D3FEE71B4ACC
:10219000F0235060074803700720916010601068BA
:1021A00020F004001060106820F00200106010BDE4
:1021B0004C00002023ED00E010B51B4C2078617826
:1021C000884208D1608828B101386080000404BFCB
:1021D0000020207010BDFFF7A5FF20786070002858
:1021E00014BF4EF660200020608010BD034800211F
:1021F0008160016841F002010160704710E000E079
:1022000009490020782808BF70470A1853684BB165
:1022100013890BB1013B04E0137B01331373538922
:1022200003B113810C30EDE7AC0100207047FFF7DC
:10223000E7BF000082B03648364A016841F001012C
:10224000016041681140344A4160016811400160F9
:10225000016821F480210160416821F4FE014160A0
:102260004FF41F018160002101910091016841F448
:1022700080310160016801F4003100910199013160
:102280000191009919B90199B1F5A06FF2D10168D6
:10229000890354BF0021012100910099012930D107
:1022A0001E490A6842F010020A600A6822F007021A
:1022B0000A600A6842F002020A60416841604168AF
:1022C0004160416841F480614160416821F47C11C2
:1022D0004160416841F4E8114160016841F080715A
:1022E000016001688901FCD5416821F0030141606A
:1022F000416841F002014160416801F00C01082988
:10230000FAD107484FF00061016002B0704700BF8A
:10231000001002400000FFF8FFFFF6FE0020024020
:1023200008ED00E0FEE748F20101411A0020022911
:1023300088BF4FF0FF3070470020704748F201011E
:10234000411A0020032938BF0120704710B5C8B1D9
:10235000044600783A2815D10F492046FEF704F9C3
:1023600098B10E492046FEF7FFF888B10C49204687
:10237000FEF7FAF801464FF0FF30002908BF48F297
:10238000030010BD4FF0FF3010BD48F2010010BD3A
:1023900048F2020010BD00BF482E00084F2E000872
:1023A000402E00084FF0FF307047B0B50D4648F2A0
:1023B0000301144688420FD048F2020188420FD12F
:1023C00064B115F8010BFFF787FD013CF8E715F83C
:1023D000010BFFF781FD013C002CF8D10020B0BDBE
:1023E0004FF0FF30B0BD000082B00C46054605A698
:1023F00008A70020314653223B46CDE90054FFF7A1
:10240000DFFDF6E76173736572745F6661696C6521
:102410006400000057726F6E6720706172616D65B5
:10242000746572732076616C75653A2066696C65B7
:10243000202573206F6E206C696E652025640D0A5F
:1024400000000000FFF786FE194C20698047206BD2
:1024500080470D480D4C00216422A0470C480A21FA
:102460006422A0470B4814216422A0470A481E2179
:102470006422A047094828210A22A047FFF7B6FE98
:10248000FFF730FEFCE700BFA1240008A9200008E8
:10249000A9240008B5240008B9240008DD24000898
:1024A0000348C069004700BF0148C06B004700BF38
:1024B0000C0000207047000002A104A30020252288
:1024C000FFF77EBD7461736B340000007461736B41
:1024D000342072756E696E672E00000002A104A39D
:1024E00002202A22FFF76CBD7461736B3500000077
:1024F0007461736B352072756E696E672E00000013
:102500005FEA400C08BF91F0000F4FEA8C234FEABE
:10251000C12243EA51514FEA1C5018BF00F5F04068
:102520004FEA300018BF41F000415FEA6C5C00F0F8
:102530002980BCF1FF3F08BF40F080407047130C7A
:1025400006BF12044FF0100C4FF0000C130E04BF26
:1025500012020CF1080C130F04BF12010CF1040C51
:10256000930F04BF92000CF1020CD30F04BF520072
:102570000CF1010C11464FF00002A0F11F00A0EB7E
:102580000C00704711F0004F08BF704731F0004158
:102590003FF4D5AF0B0C06BF09044FF0100C4FF001
:1025A000000C0B0E04BF09020CF1080C0B0F04BF4A
:1025B00009010CF1040C8B0F04BF89000CF1020C13
:1025C000CB0F04BF49000CF1010CCCF1200322FA1F
:1025D00003F341EA030102FA0CF2A0EB0C0000F154
:1025E0000100704723F07F4720F07F4C80EA030012
:1025F00000F00040ACEB070303F57C5303F1FF034D
:102600002DE9804909B44FEA144324EA03484FEA0C
:10261000154B25EA0B4E0FF2042606EB13273E78E6
:1026200003FB0667C7F5000707FB06F64FEAD64629
:1026300006F102064FEA543707FB066CCCF1005C4A
:102640004FEA1C472CEA074C0CFB06F507FB06F487
:1026500004EB15464FEA961649085FEA320234BF8A
:1026600000204FF000404FEAD13706FB07FC4FEA4D
:102670001C4C0CFB0BF7D21B03FB0CF761EB0701A7
:102680000CFB0EF7B0EB074072EB17420CFB08F7A0
:1026900034BFA2EB0742B2EB074261EB17414FEAAE
:1026A0000C444FEA910706FB07FC4FEA1C4C0CFB5D
:1026B0000BF7B0EBC74072EB573203FB0CF734BF9C
:1026C000A2EBC742B2EBC74261EB57310CFB0EF7EE
:1026D000B0EBC70072EB57720CFB08F734BFA2EBEC
:1026E000C702B2EBC70261EB57714FEA816141EA61
:1026F00092114FEA826242EA90124FEA806004EB44
:10270000CC04039F4FEAD13706FB07FC4FEA1C4C71
:102710000CFB0BF7D21B03FB0CF761EB07010CFB67
:102720000EF7B0EB074072EB17420CFB08F734BF13
:10273000A2EB0742B2EB074261EB17414FEA8C551F
:1027400004EB9C244FEA910706FB07FC4FEA1C4C64
:102750000CFB0BF7B0EBC74072EB573203FB0CF7E7
:1027600034BFA2EBC742B2EBC74261EB57310CFB5F
:102770000EF7B0EBC70072EB57720CFB08F734BFD3
:10278000A2EBC702B2EBC70261EB57714FEA81615E
:1027900041EA92114FEA826242EA90124FEA806067
:1027A00015EB4C2544F100044FEAD13706FB07FC3A
:1027B0004FEA1C4C0CFB0BF7D21B03FB0CF761EB35
:1027C00007010CFB0EF7B0EB074072EB17420CFB56
:1027D00008F734BFA2EB0742B2EB074261EB1741A7
:1027E0004FEA813141EA92414FEA823242EA904215
:1027F0004FEA80304FEA0C7615EB1C1544F10004CB
:1028000048EA03434EEA0B484FF0000EB2EB080CC7
:1028100071EB030724BF624639464EEB0E0E4FF0B4
:10282000000B0018524149414BEB0B0BB2EB080C6B
:1028300071EB03077BF1000B24BF624639464EEB78
:102840000E0E4FF0000B0018524149414BEB0B0BA1
:10285000B2EB080C71EB03077BF1000B24BF62465F
:1028600039464EEB0E0E51EA020718BF46F001063C
:1028700016EB0E7655F1000254F1000103D5BDE8C8
:102880008901BDE80088BDE88901BDE80048B619A6
:10289000524141EB0101A3F10103704780807F7E2B
:1028A0007D7C7B7A797877767675747372717170C6
:1028B0006F6E6E6D6C6C6B6A6A6968686766666578
:1028C0006464636362616160605F5F5E5E5D5D5C06
:1028D0005C5B5B5A5A595958585757565655555577
:1028E0005454535352525251515050504F4F4F4ED7
:1028F0004E4D4D4D4C4C4C4B4B4B4A4A4A49494925
:102900004848484747474746464645454544444466
:102910004443434343424242424141419C46002B8F
:1029200030D477002BD04FEA37071CB503B44FF0F3
:1029300010004FF01001BAF1000F06D0BCF1000FEB
:10294000DCBF40F0080040F008014FF000000FBC71
:10295000BDE810400BF1010BBBF1010F08BF5FEAAE
:10296000170722BF12F1010211F101014FF00041DE
:1029700043F1000300F0004043EA00007047F9D340
:102980005708D0E746EA06464FEA164613F1400FCD
:102990001FDD13F1200FDFBF16430A46002120334D
:1029A0005B42BED0C3F1200746EA06464FEA164610
:1029B00002FA07F746EA070622FA03F2C3F12007F4
:1029C00001FA07F742EA070221FA03F14FF0000388
:1029D000A7E746EA020646EA06464FEA164646EAF0
:1029E0000106BCBF46EA0646360C4FF000034FF026
:1029F00000024FF0000194E72DE9804C70B49A4634
:102A0000934691E8380007C831EA400C48BF34EAE1
:102A1000430C03D5FFF7E6FDFFF780FFF0BCBDE8F0
:102A2000008C2DE9804C70B49A46934691E83800AA
:102A300007C810F0804F08BF13F0804F03D100F09B
:102A400005F8FFF76BFFF0BCBDE8008C20F07F4776
:102A500023F07F4C80EA030000F0004007EB0C03FA
:102A6000A3F57C53A3F1FE0392F0000F00F0B380B6
:102A700095F0000F00F077802DE901494FEA1140F1
:102A800021EA00484FEA144624EA064700FB06FC08
:102A900008FB06F607FB08F818EB06484CEB164C4B
:102AA00000FB07F718EB07484CEB17404FEA124BB7
:102AB00022EA0B4E4FEA154625EA06470BFB06FCB9
:102AC0000EFB06F607FB0EFE1EEB064E4CEB164CFD
:102AD0000BFB07F71EEB074E4CEB174B18EB0B08E5
:102AE00040F1000018EB0E0B58EB000840F100001D
:102AF0008F1A4FF000014FF000063CBFC943661B20
:102B000014BFB5EB040C00213CBFC943F61B4FEAD0
:102B1000174427EA04454FEA1C472CEA074C04FBFC
:102B2000076205FB07F70CFB05F616EB074642EBC1
:102B3000174204FB0CFC16EB0C4642EB1C421BEB51
:102B4000060658EB020241414EEA8E0E46EA9E0608
:102B500001D5BDE80189B619524141EB0101A3F14C
:102B60000103BDE801894FEA144524EA05464FEA0E
:102B7000114721EA074C05FB07F406FB07F70CFB9E
:102B800006F111EB074144EB174405FB0CFC11EB7C
:102B90000C4144EB1C444FEA124722EA074C05FB68
:102BA00007F206FB07F70CFB06F616EB074642EBAF
:102BB000174205FB0CFC16EB0C4642EB1C456A1851
:102BC00054F1000148BF7047B619524141EB010171
:102BD000A3F10103704795F0000F37D04FEA11427F
:102BE00021EA02464FEA144724EA074C02FB07F1A8
:102BF00006FB07F70CFB06F414EB074441EB174107
:102C000002FB0CFC14EB0C4441EB1C414FEA154752
:102C100025EA074C02FB07F506FB07F70CFB06F657
:102C200016EB074645EB174502FB0CFC16EB0C4672
:102C300045EB1C42121951F1000148BF7047B6190B
:102C4000524141EB0101A3F1010370474FEA1445E2
:102C500024EA05464FEA114721EA074C05FB07F134
:102C600006FB07F70CFB06F212EB074241EB17419C
:102C700005FB0CFC12EB0C4251EB1C414FF0000623
:102C800048BF7047921841EB0101A3F1010370475F
:102C9000490050EAC12018BF04204A0D18BF40F077
:102CA000010040F2FF72B2EB515F08BF40F002003A
:102CB000012808BF0520704730380A2801D20120BA
:102CC0007047002070478A68002A01DCFEF75ABC72
:102CD000521E8A604A68C0B2531C4B601070704725
:102CE00010B500290AD00878002807D00548784494
:102CF000FDF73AFC002801D0002010BD02487844BE
:102D000010BD0000760200006E02000010B5002920
:102D10000AD00878002807D005487844FDF724FC3D
:102D2000002801D0002010BD0248784410BD0000EA
:102D3000660200005E020000FDF789BFFEF7BEB824
:102D40000400000800000000000000020001000074
:102D5000100000000000000000000000303132339D
:102D600034353637383941424344454640305800BF
:102D700030313233343536373839616263646566F1
:102D8000403078003031323334353637383961628B
:102D900063646566787000303132333435363738E5
:102DA000394142434445465850000000024000006B
:102DB000000000A00000000005400000000000C866
:102DC000000000000C4000000000409C00000000DB
:102DD000194000000020BCBE00000000344000008C
:102DE000BFC91B8E00000004B5400000504BCFD07F
:102DF0006607E2CF010000006C4100003E8251AA4C
:102E0000DFEEA73401000000D9420000DCB5A0E2EB
:102E10003A301F97FFFFFFFFB4450000FD25A0C813
:102E2000E9A3C14FFFFFFFFFFF3F0000000000804C
:102E300000000000FF3F00000000008000000000D4
:102E40003A535444455252003A535444494E003A7E
:102E50005354444F55540044454255470020574170
:102E6000524E0020494E464F004552524F520043A9
:102E70003A2F55736572732F4A5A592F4170704417
:102E80006174612F4C6F63616C2F41726D2F5061C3
:102E9000636B732F4B65696C2F53544D333246313E
:102EA00078785F4446502F322E342E302F4465768A
:102EB0006963652F5374645065726970685F44720A
:102EC000697665722F7372632F73746D3332663156
:102ED00030785F6770696F2E6300433A2F557365D2
:102EE00072732F4A5A592F417070446174612F4C8C
:102EF0006F63616C2F41726D2F5061636B732F4B49
:102F000065696C2F53544D3332463178785F4446AF
:102F1000502F322E342E302F4465766963652F533F
:102F200074645065726970685F4472697665722F67
:102F30007372632F73746D3332663130785F7263EE
:102F4000632E630090300008000000205000000055
:102F50006C010008E030000850000020D807000095
:102F6000880100081C00000043000000F8FFFFFF7C
:102F70000C0000000E0000000F0000002E000000FA
:102F80001001000043000000F8FFFFFF0040404038
:102F9000404040404040414141414140404040402C
:102FA00040404040404040404040404040050202D8
:102FB0000202020202020202020202020220202097
:102FC00020202020202020020202020202029090F3
:102FD00090909090101010101010101010101010F1
:102FE0001010101010101010020202020202888845
:102FF0008888888808080808080808080808080851
:103000000808080808080808020202024000000038
:1030100000000000000000000000000000000000B0
:1030200000000000000000000000000000000000A0
:103030000000000000000000000000000000000090
:103040000000000000000000000000000000000080
:103050000000000000000000000000000000000070
:103060000000000000000000000000000000000060
:103070000000000000000000000000000000000050
:103080000000000000000000000000000000000040
:10309000000000000000000000000000000C0140E3
:1030A0002000000008000000000000000D1F0008C4
:1030B000151F0008051F00081D1F0008001801400B
:1030C000200000004000000000010100351F000842
:1030D0003D1F00082D1F0008451F000800A24A04DC
:0400000508000131BD
:00000001FF
